:100000000C9431000C94CA000C9400000C94000075
:100010000C9400000C9400000C9400000C94000060
:100020000C9400000C9400000C9400000C94CB0085
:100030000C9400000C9400000C9400000C94000040
:100040000C9400000C9400000C9400000C94000030
:100050000C9400006400000001000600040054003D
:100060000000F894EE27ECBBF1E0FBBFEBBFE5BF6F
:100070008DE0A2E0BB27ED938A95E9F780E098E058
:10008000A0E6ED930197E9F7EAE5F0E08591959117
:10009000009761F0A591B59105901590BF01F00111
:1000A00005900D920197E1F7FB01F0CFEFE5EDBF71
:1000B000E8E0EEBFC0E6D2E00C9402011A931FEF15
:1000C000E0EFEABBEFEEEBBBC89902C017E0FCCF54
:1000D000C99902C018E0FCCFCA9902C019E0FCCF50
:1000E000CB9902C01AE0FCCFEFEDEBBBC89902C080
:1000F00014E0FCCFC99902C015E0FCCFCA9902C038
:1001000016E0FCCFCB9902C01BE0FCCFEFEBEBBBC2
:10011000C89902C011E0FCCFC99902C012E0FCCF1F
:10012000CA9902C013E0FCCFCB9902C01CE0FCCFFF
:10013000EFE7EBBBC89902C01DE0FCCFC99902C034
:1001400010E0FCCFCA9902C01EE0FCCFCB9902C0E0
:100150001FE0FCCFE12F1CC0909AA1E0B0E00E940C
:100160003C01909808951A93A9DF1E2F1F3F81F03C
:100170001C3019F4F2013A972F011F3019F4F201E3
:100180003A962F01EAE0F0E04E165F060CF42F01DC
:100190001991089518950A921A92FA926A937A938D
:1001A0008A939A93AA93BA93EA93FA93EFB7EA934E
:1001B000E3E5E2BF062C072889F4082C092811F092
:1001C000E0E001C0E1E0E03011F4A89801C0A89A95
:1001D000F4010E944A018E2E9924BEDFD3011196AC
:1001E000F2010E9462013F01E991EFBFF991E991AB
:1001F000B991A9919991899179916991F990199001
:1002000009901895EFEFEABBE0E0EBBBE7BBE8BB7A
:10021000E4BBE5BBE3E0E1BBE0E0E2BBE3E0E3BF7E
:10022000E3E5E2BFE0E0ECBFEFBDEEBDEDBDECBD50
:10023000E7BDE6BDEBBDEABDE9BDE8BDE2BDE5BD9C
:10024000E4BDE3BDE1E0E9BFEBB7E064EBBFE2E0B2
:10025000E5BFE0E0E4BFE0E4EABFE0E0EAB9E0E8FF
:10026000E8B9E0E0E0BFE6B9EDB9E6BFA09AA89A28
:10027000789479DFFECFFFCF109639F08DEC9AE0BD
:100280000197F1F7A8951197C9F70895F195E195B0
:10029000F0400895EF2BE1E009F0E0E0089500243C
:1002A000112490E1AA0FBB1F001C111C0E1A1F0A7B
:1002B00018F40E0E1F1E01C0A1609A9599F7FD015A
:1002C000D0010895E894B7FF04C0A095B0951196A9
:1002D0006894F7FDDBDFE3DFFD010EF4D7DF08955F
:00000001FF
