:040000000C943C0020
:100004000C9469000C9400000C9400000C94000003
:100014000C9400000C9400000C9400000C9400005C
:100024000C9400000C9400000C9400000C9400004C
:100034000C9400000C9400000C9400000C9400003C
:100044000C9400000C9400000C9400000C9400002C
:10005400000080C001002D4E414E00494E46000074
:100064000100050054000200600256000100640211
:1000740058000000F894EE27ECBBF1E0FBBFEBBFA7
:10008400E5BF8DE0A2E0BB27ED938A95E9F780E018
:1000940098E0A0E6ED930197E9F7E4E6F0E08591B6
:1000A4009591009761F0A591B59105901590BF01C8
:1000B400F00105900D920197E1F7FB01F0CFEFE518
:1000C400EDBFE8E0EEBFC0E6D2E00C947E00EA9318
:1000D400EFB7EA93552011F0E0E001C0E1E0E03031
:1000E40011F4A89801C0A89AE52D0E9425015E2E5E
:1000F400E991EFBFE9911895E0E0EABBEBBBE7BB00
:10010400E8BBE4BBE5BBE3E0E1BBE0E0E2BBE3BFAB
:10011400E2BFECBFEFBDEEBDEDBDECBDE7BDE6BD9E
:10012400EBBDEABDE9BDE8BDE2BDE5BDE4BDE3BDAF
:10013400E9BFEBB7E064EBBFE2E0E5BFE0E0E4BFBA
:10014400E0E4EABFE0E0EAB9E0E8E8B9E0E0E0BF13
:10015400E6B9EDB9E6BFA0E130D0A09A7894FFCF1C
:10016400FFCFAA93E5B3EF70AE2FE881E07FEA2BCF
:10017400E5BB82E18A95F1F7AB9A82E18A95F1F7C2
:10018400AB9882E18A95F1F744C0AA93A881E9DF8C
:10019400E881E295E883A881E4DF88EB8A95F1F7AA
:1001A40038C0A2E00E940D01ACE0EFDFA1E00E94A4
:1001B4000D01E0E07E2E4E2E0895AA93E4B3E06F85
:1001C400E4BBA39AA19AA29AAB98A998AA9868802A
:1001D400E881E058E0936202E881E054E09363022E
:1001E400A4E1B0E00E941B010E9413010E941301CC
:1001F4000E941301A0E2B5DF84E191E00197F1F7D9
:10020400A8E2C3DFA4E0C1DFA5E8BFDFA6E0BDDF4D
:10021400C8DF219608950E94C700A3E0B0E00C94C3
:100224001B01A0E30E94B30084E191E00197F1F780
:100234000895109639F08DEC9AE00197F1F7A8959E
:100244001197C9F70895EE23E1E009F0EE27089528
:00000001FF
