:100000000C943B000C94A9000C9400000C9400008C
:100010000C9400000C9400000C9400000C94000060
:100020000C9400000C9400000C9400000C94BD0093
:100030000C9400000C9400000C9400000C94000040
:100040000C9400000C9400000C9400000C94000030
:100050000C940000780500000000000001003F063D
:100060005B4F666D7D077F6F0A00040054000A0035
:1000700060025E000000F894EE27ECBBF1E0FBBFED
:10008000EBBFE5BF8DE0A2E0BB27ED938A95E9F7D2
:1000900080E098E0A0E6ED930197E9F7E8E6F0E06C
:1000A00085919591009761F0A591B5910590159076
:1000B000BF01F00105900D920197E1F7FB01F0CF30
:1000C000EFE5EDBFE8E0EEBFC0E6D2E00C94ED0056
:1000D000D201BBD07E2ED201EAE0F0E0BBD06E2E82
:1000E000D201E4E6F0E0B6D09E2ED201E8EEF3E0D5
:1000F000B1D08E2E0895ECDF979A969A959A949A9D
:10010000EB2DF0E0309719F49798E72D14C0E1300B
:10011000A0E0FA0719F49698E62D0DC0E230A0E0B1
:10012000FA0719F49598E92D06C0E330A0E0FA0724
:1001300039F49498E82DF0E0E05AFD4FE081E8BBF7
:10014000EB2DF0E03196A3E0B0E00E945801BE2E06
:100150000895EA93FA93EFB7EA93E1E0F0E0EC1543
:10016000FD0519F4E4E6F0E002C0E1E0F0E06F0123
:10017000E991EFBFF991E99118950A921A92FA92D2
:100180006A937A938A939A93AA93BA93EA93FA9387
:10019000EFB7EA93E3E5E2BFE0916A02F0916B0208
:1001A000309709F4A8DFA0916A02B0916B02119612
:1001B000F6010E944A01E0936A02F0936B02E99112
:1001C000EFBFF991E991B991A991999189917991AB
:1001D0006991F990199009901895E0E0EABBEBBBA2
:1001E000EFEFE7BBE0E0E8BBE4BBE5BBE0EFE1BB82
:1001F000E0E0E2BBE3E0E3BFE3E5E2BFE0E0ECBF69
:10020000EFBDEEBDEDBDECBDE7BDE6BDEBBDEABDAE
:10021000E9BDE8BDE2BDE5BDE4BDE3BDE1E0E9BFA8
:10022000EBB7E064EBBFE3E0E5BFE0E0E4BFE0E4B0
:10023000EABFE0E0EAB9E0E8E8B9E0E0E0BFE6B94B
:10024000EDB9E6BF7894FFCFFFCFEAE0F0E00E947F
:100250004A0108950E944501DF01F7CFF195E1952C
:10026000F04008950024112490E1AA0FBB1F001C48
:10027000111C0E1A1F0A18F40E0E1F1E01C0A160D9
:100280009A9599F7FD01D00108951CD0EBDF0EF48B
:10029000E5DF0895E894B7FF04C0A095B0951196E6
:1002A0006894F7FDDBDFDEDFFD010EF4D7DF089594
:1002B000E894F7FF02C0D2DF6894EA23FB230EF430
:1002C000CDDF0895E894F7FF02C0C8DF6894B7FF58
:1002D00006C0A095B095119600F8039400FA089511
:00000001FF
