:080000000C944B000C94AA01C2
:100008000C94B0010C9400000C9400000C940000B7
:100018000C9400000C9400000C9400000C94CD018A
:100028000C9400000C94B1010C9400000C94000096
:100038000C9400000C9400000C9400000C94000038
:100048000C9400000C9400000C9400001027E803A6
:1000580064000A00010000100001100001001400F3
:1000680000000000000025730A25730080C001000D
:100078002D4E414E00494E4600000800040066001F
:100088000200B50274000100B90276000000F8947D
:10009800EE27ECBBF1E0FBBFEBBFE5BF8DE0A2E0D4
:1000A800BB27ED938A95E9F780E098E0A0E6ED9309
:1000B8000197E9F7E2E8F0E085919591009761F002
:1000C800A591B59105901590BF01F00105900D928D
:1000D8000197E1F7FB01F0CFEFE5EDBFE8E0EEBFF8
:1000E800C0E6D2E00C94D4011A931FEFE0EFEABB0C
:1000F800EFEEEBBBC89902C017E0FCCFC99902C06C
:1001080018E0FCCFCA9902C019E0FCCFCB9902C015
:100118001AE0FCCFEFEDEBBBC89902C014E0FCCFAE
:10012800C99902C015E0FCCFCA9902C016E0FCCFFD
:10013800CB9902C01BE0FCCFEFEBEBBBC89902C028
:1001480011E0FCCFC99902C012E0FCCFCA9902C0E5
:1001580013E0FCCFCB9902C01CE0FCCFEFE7EBBB70
:10016800C89902C01DE0FCCFC99902C010E0FCCFBD
:10017800CA9902C01EE0FCCFCB9902C01FE0FCCF99
:10018800E12FE2C0FF92F82EEF97EF9722971A938C
:100198000A93DE01A258BF4F0E94A7048D01FE01F9
:1001A8003296FA93EA93DE01AC57BF4F0E94A70438
:1001B8000E94DA04FA93EA93D8010E9417040E9475
:1001C8004302DE0112960E94640219810881EF96AB
:1001D800EF962496FF9008951A9310E0103168F472
:1001E800E12FF0E0ED56FD4FA0E2A083E12FF0E013
:1001F800EC55FD4FA0831F5FF1CFA6C01A930A9359
:100208000091A2021FE0113068F0A12FB0E0AD56B6
:10021800BD4FE12FF0E03197ED56FD4FE081EC93B3
:100228001150F1CF0093930215C01A930A930091CD
:10023800A40210E01F3060F4A12FB0E0AC55BD4F10
:10024800E12FF0E0EB55FD4FE081EC931F5FF2CF1B
:100258000093B302099119910895BA93AA93A881BA
:10026800B981119709F48824662477249924BB243A
:10027800B3DF05D102C1882009F408959814B8F4B1
:10028800A82DBB27E92DF0E0AE1BBF0BE1E0F0E0A5
:100298000E94E704EA1BFB0BE05AFD4FE081E09364
:1002A8009302E92DF0E0E05AFD4FE08103C0E0E25F
:1002B800E0939302E093B302E0E1BE1628F0E0E297
:1002C800E0939302E093B302EEE6F0E0FA93EA9348
:1002D800E3E9F2E0662777270E94E204E4EAF2E025
:1002E800662777270E94E20488E04CDF2A9686DF9B
:1002F8009CDFE92DF0E03196AFE0B0E00E94D00439
:100308009E2EEB2DF0E03196DF01E82DF0E070969F
:100318000E94C204BE2EBB2019F4A0E0B0E09DDF0D
:1003280008951A93E1DE1E2F1F3F71F01A3060F412
:10033800E82D8394F0E0E05AFD4FDF01E12FE05D06
:10034800EC93A0E0B0E089DF199108950E945C0465
:10035800A1E0B0E082DF0FC018950E945C04E3E5DD
:10036800E2BFD3011196F2010E94C2043F01062C9C
:10037800072809F480DFE991EFBFF991E991B99174
:10038800A9919991899179916991F9901990099018
:100398001895EA93ECEBEDBDE0E8ECBDE991189512
:1003A800E0E0EABBEBBBEFEFE7BBE0E0E8BBE1E096
:1003B800E4BBE0E0E5BBE3EFE1BBE0EFE2BBE3E099
:1003C800E3BFE3E5E2BFE0E0ECBFEFBDE3E0EEBD95
:1003D800ECEBEDBDE0E8ECBDE0E0E7BDE6BDEBBD74
:1003E800EABDE9BDE8BDE2BDE5BDE4BDE3BDE5E0CC
:1003F800E9BFEBB7E06CEBBFEFE0E5BFE0E0E4BFDF
:10040800E0ECEABFE0E0EAB9E0E8E8B9E0E0E0BF44
:10041800E6B9EDB9E6BFA0E164D07894DDDE81DF0E
:10042800FECFFFCFAA93E5B3EF70AE2FE881E07F50
:10043800EA2BE5BB82E18A95F1F7AB9A82E18A95CE
:10044800F1F7AB9882E18A95F1F777C0AA93A88172
:10045800E9DFE881E295E883A881E4DF88EB8A9503
:10046800F1F76BC0AA93E881F0E0EB54FD4FE0810F
:10047800A981AE0FEBDFA980D88022960895A2E06B
:100488000E946A04ACE0E2DFA1E00E946A04E0E0B6
:10049800DE2EAE2E0895AA93A881AA3011F0AC14CE
:1004A80048F0E0E0EA93D394AD2DDCDFA881AA30D0
:1004B80009F443C0A394A99AA881C8DFA9983DC0AC
:1004C800BA93AA931A93A981BA81ED91A983BA83A1
:1004D8001E2FE03019F0A12FDEDFF5CF188123960B
:1004E8000895AA93E4B3E06FE4BBA39AA19AA29AF1
:1004F800AB98A998AA98C880E881E058E093B70219
:10050800E881E054E093B802A4E1B0E00E949D04C1
:100518000E9470040E9470040E947004A0E282DFAE
:1005280084E191E00197F1F7A8E290DFA4E08EDF83
:10053800A5E88CDFA6E08ADFA2DF21960895BA93AA
:10054800AA931A930A93AA81BB8112960E94DA048D
:10055800309759F1AA81BB8114960E94DA048F0161
:10056800309761F00230E0E01E0798F0F80131970B
:100578008F01AA81BB811496ED93FC93AA81BB815C
:100588001296ED91FD913196FE93EE933197AC81E1
:10059800A083AA81BB810E94DA04FF232AF0ED918F
:1005A800FD913196FE93EE9306C0AA81BB81EFEFD1
:1005B800FFEFED93FC931981088125960895BA936E
:1005C800AA9326970E94EE0410E0AC85BD85E0E072
:1005D800F0E0ED93FC93EA89FB893196EA8BFB8B7B
:1005E8003197E4912E2FE03009F415C1E12FE03066
:1005F80039F4253211F411E002C00E9478040AC1CE
:10060800E130A9F4253219F40E94780402C112E0FD
:1006180040E000E02D3211F401E0FCC02B3211F46F
:100628004BE2F8C0203211F440E2F4C002C0E230DC
:1006380039F450E013E0203311F40068EBC003C034
:10064800E33009F0E7C0203310F02A3308F007C080
:10065800AAE05A9F502DE22FE0535E0FDBC0E22F35
:10066800E33649F40E947F04E889F989A481AA93B2
:100678000E948504CEC0E33741F40E947F040E94A3
:100688008B040E9443041E2F0AC0E03761F40E94C5
:100698007F040E948B040E944F041E2F0860026092
:1006A8000F7730E034C0E43611F0E93611F4046015
:1006B80002C0E53731F4E4E5F0E0EE83FF8315E0AE
:1006C8000CC0E83511F4086003C0E83709F0A1C090
:1006D800EEE5F0E0EE83FF8314E002FF14C00E9411
:1006E8007F040E949504AB85AA233AF4EA85FB852A
:1006F8000E94AB04EA87FB874DE2403011F01F5F90
:1007080001C00B7F04C00E947F040E94950400FD75
:1007180011C0151778F407FF08C002FF04C00B7F4B
:10072800242F115001C020E301C020E20E94780468
:100738005150EFCF312F01FF17C03030A1F003FF28
:1007480006C0EE81FF812591EE83FF8305C0AE814F
:10075800BF812D91AE83BF830E947804503009F089
:1007680051503150EACF4BC020E3EE81FF810E9407
:10077800DE04E887F987EE81FF813296EE83FF83F6
:10078800E885F985AA85BB85AE17BF0750F02F5FAE
:10079800A885B985EA85FB85EA1BFB0BEA87FB87F9
:1007A800EFCF2A3328F003FF02C0295F01C0295D7B
:1007B80004FD1AC0213320F4A885B985119709F4DE
:1007C80009C0531710F000FF01C013C020E207FF53
:1007D8000BC020E3006102FF07C00B7F4A930E9411
:1007E8008504503009F051500E947804503009F0C7
:1007F80051503150A885B985129708F0B5CF00FF40
:1008080008C0503031F05150E0E2EA930E9485046C
:10081800F8CF10E0E0CEAC85BD850E94DA040E94D6
:10082800F50464960895BA93AA9326971A930A939F
:10083800EC85FD85309719F4EFEFFFEF1CC0EC85D0
:10084800FD85EC83FD83E0E0EE83EF83EA85FB859D
:10085800FA93EA93EA85FB85FA93EA93E3EAF2E0EE
:10086800FA93EA93DE011896AADE8F01AC81BD8166
:10087800E0E0EC93F801198108812E960895BA9367
:10088800AA93A991B991EE27FF276D91662311F0DC
:100898003196FBCF0895BA93AA93AA27BB27E9916B
:1008A800F9910590002011F01196FBCFFD010895F4
:1008B8000A921A92FA926A937A938A939A93AA93CB
:1008C800BA93EA93FA93EFB7EA9308950E942A023B
:1008D800A3E0B0E00C949D04A0E30E94160284E11A
:1008E80091E00197F1F708952A93AD85BE85EF85CC
:1008F800F88909950895E889F9893497E88BF98B7F
:100908000895AD85BE85EF85F88909950895A8896C
:10091800B98914960E94DA04EE83FF83AE81BF8101
:100928000895A889B98914960E94DA04EA87FB8792
:100938000895109639F08DEC9AE00197F1F7A89593
:100948001197C9F708950024AF0DB01D0895F195CA
:10095800E195F04008950024112490E1AA0FBB1FEF
:10096800001C111C0E1A1F0A18F40E0E1F1E01C0BF
:10097800A1609A9599F7FD01D0010895E894B7FF11
:1009880004C0A095B09511966894F7FDE0DFE3DF09
:10099800FD010EF4DCDF0895E894F7FF02C0D7DF0D
:1009A8006894EA23FB230EF4D2DF0895ED91FC91BD
:1009B800119708950590F491E02D08957A936A931C
:1009C800FA93EA9308951B2EBF2FF12D1A2EAE2FFE
:1009D800E12D08955A934A933A932A931A930A93C6
:1009E80008955D814C813B812A8119810881089590
:00000001FF
