:080000000C9430000C948A00FE
:100008000C9400000C9400000C9400000C94000068
:100018000C9400000C9400000C9400000C94000058
:100028000C9400000C949F000C9400000C940000A9
:100038000C9400000C9400000C9400000C94000038
:100048000C9400000C9400000C94000000000000C8
:100058000400040054000000F894EE27ECBBF1E023
:10006800FBBFEBBFE5BF8DE0A2E0BB27ED938A9510
:10007800E9F780E098E0A0E6ED930197E9F7E8E575
:10008800F0E085919591009761F0A591B591059063
:100098001590BF01F00105900D920197E1F7FB0162
:1000A800F0CFEFE5EDBFE8E0EEBFC0E6D2E00C949C
:1000B800C700BA93AA93A89890989198042C0528F9
:1000C80091F4E881F981309711F4A89A0BC0E130D6
:1000D800A0E0FA0711F4909A05C0E230A0E0FA0710
:1000E80009F4919A11C0E881F981309711F4919A35
:1000F8000BC0E130A0E0FA0711F4909A05C0E23095
:10010800A0E0FA0709F4A89A229608950A92EA93B9
:10011800FA93EFB7EA9300240414050419F4E1E014
:10012800F0E002C0E0E0F0E02F01E991EFBFF991C3
:10013800E991099018950A921A92FA926A937A9319
:100148008A939A93AA93BA93EA93FA93EFB7EA93A6
:10015800E8E2E2BFD301E3E0F0E00E9416013F01CC
:10016800D301A7DFF30131963F01E991EFBFF99180
:10017800E991B991A9919991899179916991F990A8
:10018800199009901895E0E0EABBEBBBE7BBE8BB28
:10019800E1E0E4BBE0E0E5BBE3E0E1BBE0E0E2BBDB
:1001A800E5E0E3BFE8E2E2BFE0E0ECBFEFBDEEBDB3
:1001B800EDBDECBDE7BDE6BDEBBDEABDE9BDE8BD03
:1001C800E2BDE5BDE4BDE3BDE1E0E9BFEBB7E06456
:1001D800EBBFE3E0E5BFE0E0E4BFE0E4EABFE0E076
:1001E800EAB9E0E8E8B9E0E0E0BFE6B9EDB9E6BFB2
:1001F8007894FFCFFFCFF195E195F0400895002462
:10020800112490E1AA0FBB1F001C111C0E1A1F0A13
:1002180018F40E0E1F1E01C0A1609A9599F7FD01F2
:10022800D0010895E894B7FF04C0A095B095119641
:100238006894F7FDE0DFE3DFFD010EF4DCDF0895ED
:00000001FF
