:040000000C94380024
:100004000C9465000C9400000C9400000C94000007
:100014000C9400000C9400000C9400000C9400005C
:100024000C9400000C9400000C9466000C940000E6
:100034000C9400000C9400000C9400000C9400003C
:100044000C9400000C9400000C9400000C9400002C
:10005400050000003F065B4F666D7D077F6F04005F
:10006400040054000A00600258000000F894EE27CF
:10007400ECBBF1E0FBBFEBBFE5BF8DE0A2E0BB272B
:10008400ED938A95E9F780E098E0A0E6ED93019777
:10009400E9F7E2E6F0E085919591009761F0A5918A
:1000A400B59105901590BF01F00105900D9201974F
:1000B400E1F7FB01F0CFEFE5EDBFE8E0EEBFC0E60E
:1000C400D2E00C94940018950A921A929A93AA93E7
:1000D400BA93EA93FA93EFB7EA93E8E2E2BF6620B1
:1000E40079F4E72DF0E0E05AFD4FE081E8BBE72D1D
:1000F400F0E03196DF01EAE0F0E00E94E4007E2EB9
:10010400E62DF0E03196DF01F2010E94E4006E2E4C
:10011400E991EFBFF991E991B991A9919991199058
:1001240009901895E0E0EABBEBBBEFEFE7BBEFE328
:10013400E8BBE0E0E4BBE5BBE0EFE1BBE0E7E2BB4A
:10014400E5E0E3BFE8E2E2BFE0E0ECBFEFBDEEBD17
:10015400EDBDECBDE7BDE6BDEBBDEABDE9BDE8BD67
:10016400E2BDE5BDE4BDE3BDE1E0E9BFEBB7E064BA
:10017400EBBFE3E0E5BFE0E0E4BFE0E4EABFE0E0DA
:10018400EAB9E0E8E8B9E0E0E0BFE6B9EDB9E6BF16
:100194007894FFCFFFCFF195E195F04008950024C6
:1001A400112490E1AA0FBB1F001C111C0E1A1F0A78
:1001B40018F40E0E1F1E01C0A1609A9599F7FD0157
:1001C400D0010895E894B7FF04C0A095B0951196A6
:1001D4006894F7FDE0DFE3DFFD010EF4DCDF089552
:00000001FF
