:0A0000000C943A000C9416010C94C5
:10000A001D010C9400000C9400000C9400000C9448
:10001A0000000C9400000C9400000C9400000C9456
:10002A0000000C941E010C9400000C9400000C9427
:10003A0000000C9400000C9400000C9400000C9436
:10004A0000000C9400000C94000000000000000066
:10005A0000003F065B4F666D7D077F6F0800040056
:10006A0054000A0060025C000000F894EE27ECBB22
:10007A00F1E0FBBFEBBFE5BF8DE0A2E0BB27ED934C
:10008A008A95E9F780E098E0A0E6ED930197E9F711
:10009A00E6E6F0E085919591009761F0A591B5911A
:1000AA0005901590BF01F00105900D920197E1F7B7
:1000BA00FB01F0CFEFE5EDBFE8E0EEBFC0E6D2E02E
:1000CA000C943C01D2010CD17E2ED201EAE0F0E080
:1000DA000CD16E2ED201E4E6F0E007D19E2ED201B9
:1000EA00E8EEF3E002D18E2E0895ECDF979A969A05
:1000FA00959A949AEB2DF0E0309719F49798E72D9A
:10010A0014C0E130A0E0FA0719F49698E62D0DC064
:10011A00E230A0E0FA0719F49598E92D06C0E33019
:10012A00A0E0FA0739F49498E82DF0E0E05AFD4F80
:10013A00E081E8BBEB2DF0E03196A3E0B0E00E944D
:10014A00B501BE2E08951A931FEFE0EFEABBEFEE5A
:10015A00EBBBC89902C017E0FCCFC99902C018E0EE
:10016A00FCCFCA9902C019E0FCCFCB9902C01AE0B1
:10017A00FCCFEFEDEBBBC89902C014E0FCCFC999E4
:10018A0002C015E0FCCFCA9902C016E0FCCFCB9999
:10019A0002C01BE0FCCFEFEBEBBBC89902C011E039
:1001AA00FCCFC99902C012E0FCCFCA9902C013E081
:1001BA00FCCFCB9902C01CE0FCCFEFE7EBBBC899A0
:1001CA0002C01DE0FCCFC99902C010E0FCCFCA9959
:1001DA0002C01EE0FCCFCB9902C01FE0FCCFE12F8A
:1001EA001EC01A93B0DF1E2F1F3FC9F01A3040F409
:1001FA00D201E8EEF3E00E94A701AAE0B0E007C04E
:10020A00D201E4E6F0E00E94A701A4E6B0E00E9471
:10021A008A01DF01E12FF0E0EA0FFB1F2F0119919C
:10022A000895EA93EFB744245524EFBFE99118954E
:10023A0018950A921A92FA926A937A938A939A93DF
:10024A00AA93BA93EA93FA93EFB7EA93E3E5E2BF84
:10025A004CDFE991EFBFF991E991B991A99199918F
:10026A00899179916991F990199009901895E0E02E
:10027A00EABBEBBBEFEFE7BBE0E0E8BBE4BBE5BB07
:10028A00E0EFE1BBE0E0E2BBE3E0E3BFE3E5E2BFCE
:10029A00E0E0ECBFEFBDEEBDEDBDECBDE7BDE6BDF8
:1002AA00EBBDEABDE9BDE8BDE2BDE5BDE4BDE3BD28
:1002BA00E1E0E9BFEBB7E06CEBBFEFE0E5BFE0E000
:1002CA00E4BFE0ECEABFE0E0EAB9E0E8E8B9E0E080
:1002DA00E0BFE6B9EDB9E6BF789483DFFECFFFCF82
:1002EA00EAE0F0E00E94A70108950E94A201DF015E
:1002FA00F7CFF195E195F0400895FA9FF02DEB9F25
:10030A00F00DEA9FE02DF10D089534D0F6DF0EF4DA
:10031A00F0DF08950024112490E1AA0FBB1F001CEE
:10032A00111C0E1A1F0A18F40E0E1F1E01C0A1601E
:10033A009A9599F7FD01D00108951CD0EBDF0EF4D0
:10034A00D8DF0895E894B7FF04C0A095B095119638
:10035A006894F7FDCEDFDEDFFD010EF4CADF0895F3
:10036A00E894F7FF02C0C5DF6894EA23FB230EF482
:10037A00C0DF0895E894F7FF02C0BBDF6894B7FFB7
:10038A0006C0A095B095119600F8039400FA089556
:00000001FF
