:0A0000000C943C000C948F000C944B
:10000A0093000C9400000C9400000C9400000C94D3
:10001A0000000C9400000C9400000C9400000C9456
:10002A0000000C9400000C9400000C9400000C9446
:10003A0000000C9400000C9400000C9400000C9436
:10004A0000000C9400000C940000000080C0010025
:10005A002D4E414E00494E46000002000400540055
:10006A0002006A02560001006E0258000000F8946D
:10007A00EE27ECBBF1E0FBBFEBBFE5BF8DE0A2E0F2
:10008A00BB27ED938A95E9F780E098E0A0E6ED9327
:10009A000197E9F7E4E6F0E085919591009761F020
:1000AA00A591B59105901590BF01F00105900D92AB
:1000BA000197E1F7FB01F0CFEFE5EDBFE8E0EEBF16
:1000CA00C0E6D2E00C94A50000244014500424F4A5
:1000DA0090989198A89A0DC0D201E2E0F0E00E94AF
:1000EA00D701309719F49098919A02C0909A9198F2
:1000FA00A8980895BA93AA93488059805A924A9226
:10010A00A0E6B2E00E946B0181D0A0E6B2E09FD0E7
:10011A00DBDF7AC00E949901129603C00E949901FE
:10012A001197E8DFE991EFBFF991E991B991A991A6
:10013A009991899179916991F990199009901895F5
:10014A00E0E0EABBEBBBE7BBE8BBE1E0E4BBE0E035
:10015A00E5BBE3E0E1BBE0E0E2BBE3BFE2BFECBF4B
:10016A00EFBDEEBDEDBDECBDE7BDE6BDEBBDEABD45
:10017A00E9BDE8BDE2BDE5BDE4BDE3BDE9BFEBB75E
:10018A00E06CEBBFEFE0E5BFE0E0E4BFE0ECEABF24
:10019A00E0E0EAB9E0E8E8B9E0E0E0BFE6B9EDB9E5
:1001AA00E6BFA0E165D07894A0E0B0E0A3DFFFCF7E
:1001BA00FFCFAA93E5B3EF70AE2FE881E07FEA2B79
:1001CA00E5BB82E18A95F1F7AB9A82E18A95F1F76C
:1001DA00AB9882E18A95F1F777C0AA93A881E9DF03
:1001EA00E881E295E883A881E4DF88EB8A95F1F754
:1001FA006BC0AA93E881F0E0E659FD4FE081A9813E
:10020A00AE0FEBDF7980688022960895A2E00E9403
:10021A00A801ACE0E2DFA1E00E94A801E0E06E2EB6
:10022A007E2E0895AA93A881AA3011F0791448F075
:10023A00E0E0EA936394A62DDCDFA881AA3009F4F2
:10024A0043C07394A99AA881C8DFA9983DC0BA93FC
:10025A00AA931A93A981BA81ED91A983BA831E2F11
:10026A00E03019F0A12FDEDFF5CF1881239608952B
:10027A00AA93E4B3E06FE4BBA39AA19AA29AAB98BB
:10028A00A998AA989880E881E058E0936C02E881DE
:10029A00E054E0936D02A4E1B0E00E94B6010E942E
:1002AA00AE010E94AE010E94AE01A0E282DF84E1AB
:1002BA0091E00197F1F7A8E290DFA4E08EDFA5E8CC
:1002CA008CDFA6E08ADFA2DF21960895BA93AA936B
:1002DA00A991B991E991F99130962AF4E095F095AE
:1002EA0031966DE26D93E89480E197E20DD088EE45
:1002FA0093E00AD084E6992707D08AE005D06E2FCA
:10030A0010D066276C9308956627E817F90720F03E
:10031A006395E81BF90BC9F7662311F416F00895E3
:10032A006894605D6D9308950A921A92FA926A939C
:10033A007A938A939A93AA93BA93EA93FA93EFB722
:10034A00EA93D20108950E94F200A3E0B0E00C946F
:10035A00B601A0E30E94DE0084E191E00197F1F783
:10036A000895109639F08DEC9AE00197F1F7A89567
:10037A001197C9F70895F195E195F0400895002481
:10038A00112490E1AA0FBB1F001C111C0E1A1F0A90
:10039A0018F40E0E1F1E01C0A1609A9599F7FD016F
:1003AA00D0010895E894B7FF04C0A095B0951196BE
:1003BA006894F7FDE0DFE3DFFD010EF4DCDF08956A
:00000001FF
