:0C0000000C9438000C9400000C940000DC
:10000C000C9400000C9400000C9400000C94000064
:10001C000C9400000C9400000C9400000C94000054
:10002C000C9400000C9400000C9400000C94000044
:10003C000C9400000C9400000C9400000C94000034
:10004C000C9400000C94000001002D4E414E004910
:10005C004E46000080C001006002540002006402A1
:10006C0060000000F894EE27ECBBF1E0FBBFEBBFA7
:10007C00E5BF8DE0A2E0BB27ED938A95E9F780E020
:10008C0098E0A0E6ED930197E9F7E2E6F0E08591C0
:10009C009591009761F0A591B59105901590BF01D0
:1000AC00F00105900D920197E1F7FB01F0CFEFE520
:1000BC00EDBFE8E0EEBFC0E6D2E00C94C8001A93A6
:1000CC001FEFE0EFEABBEFEEEBBBC89902C017E005
:1000DC00FCCFC99902C018E0FCCFCA9902C019E044
:1000EC00FCCFCB9902C01AE0FCCFEFEDEBBBC8996B
:1000FC0002C014E0FCCFC99902C015E0FCCFCA992C
:10010C0002C016E0FCCFCB9902C01BE0FCCFEFEB9A
:10011C00EBBBC89902C011E0FCCFC99902C012E038
:10012C00FCCFCA9902C013E0FCCFCB9902C01CE0F3
:10013C00FCCFEFE7EBBBC89902C01DE0FCCFC9991F
:10014C0002C010E0FCCFCA9902C01EE0FCCFCB99D4
:10015C0002C01FE0FCCFE12F199108952A971A9342
:10016C00AEDF1E2F1F3F59F0F0E0FA93EA93DE0149
:10017C0013960E94F300DE0111960E946F01188104
:10018C002B960895E0E0EABBEBBBE7BBE8BBE4BB16
:10019C00E5BBE1BBE2BBE3BFE2BFECBFEFBDEEBD35
:1001AC00EDBDECBDE7BDE6BDEBBDEABDE9BDE8BD0F
:1001BC00E2BDE5BDE4BDE3BDE9BFE5BFE4BFEAB91F
:1001CC00E0E8E8B9E0E0E0BFE6B9EDB9E6BFA0E1F0
:1001DC000E948001C3DFFECFFFCFBA93AA93A991EF
:1001EC00B991E991F99130962AF4E095F095319610
:1001FC006DE26D93E89480E197E20DD088EE93E088
:10020C000AD084E6992707D08AE005D06E2F10D04B
:10021C0066276C9308956627E817F90720F0639515
:10022C00E81BF90BC9F7662311F416F008956894CE
:10023C00605D6D930895AA93E5B3EF70AE2FE881DE
:10024C00E07FEA2BE5BB82E18A95F1F7AB9A82E17C
:10025C008A95F1F7AB9882E18A95F1F777C0AA936A
:10026C00A881E9DFE881E295E883A881E4DF88EBE7
:10027C008A95F1F76BC0AA93E881F0E0EC59FD4F39
:10028C00E081A981AE0FEBDF59804880229608955A
:10029C00A2E00E94AE01ACE0E2DFA1E00E94AE0160
:1002AC00E0E04E2E5E2E0895AA93A881AA3011F09C
:1002BC00571448F0E0E0EA934394A42DDCDFA881C6
:1002CC00AA3009F443C05394A99AA881C8DFA9980D
:1002DC003DC0BA93AA931A93A981BA81ED91A983CF
:1002EC00BA831E2FE03019F0A12FDEDFF5CF188175
:1002FC0023960895AA93E4B3E06FE4BBA39AA19A62
:10030C00A29AAB98A998AA987880E881E058E093D3
:10031C006602E881E054E0936702A4E1B0E00E9439
:10032C00BC010E94B4010E94B4010E94B401A0E27D
:10033C0082DF84E191E00197F1F7A8E290DFA4E07D
:10034C008EDFA5E88CDFA6E08ADFA2DF2196089578
:10035C000E943501A3E0B0E00C94BC01A0E30E9424
:10036C00210184E191E00197F1F70895109639F09D
:10037C008DEC9AE00197F1F7A8951197C9F70895BC
:00000001FF
