:080000000C944D000C94EB017F
:100008000C9408020C9400000C9400000C9400005E
:100018000C9400000C9400000C9400000C94100246
:100028000C9400000C940C020C9400000C9400003A
:100038000C9400000C9400000C9400000C94000038
:100048000C9400000C9400000C9400001027E803A6
:1000580064000A0001000010000110000100000007
:100068002564002564202563202564203D200000A8
:1000780080C001002D4E414E00494E46000001004F
:1000880005006600020060027800010064027A0040
:100098000000F894EE27ECBBF1E0FBBFEBBFE5BF37
:1000A8008DE0A2E0BB27ED938A95E9F780E098E020
:1000B800A0E6ED930197E9F7E6E8F0E085919591E0
:1000C800009761F0A591B59105901590BF01F001D9
:1000D80005900D920197E1F7FB01F0CFEFE5EDBF39
:1000E800E8E0EEBFC0E6D2E00C9417021A931FEFC7
:1000F800E0EFEABBEFEEEBBBC89902C017E0FCCF1C
:10010800C99902C018E0FCCFCA9902C019E0FCCF17
:10011800CB9902C01AE0FCCFEFEDEBBBC89902C047
:1001280014E0FCCFC99902C015E0FCCFCA9902C0FF
:1001380016E0FCCFCB9902C01BE0FCCFEFEBEBBB8A
:10014800C89902C011E0FCCFC99902C012E0FCCFE7
:10015800CA9902C013E0FCCFCB9902C01CE0FCCFC7
:10016800EFE7EBBBC89902C01DE0FCCFC99902C0FC
:1001780010E0FCCFCA9902C01EE0FCCFCB9902C0A8
:100188001FE0FCCFE12F59C0909AA1E0B0E00E9497
:100198000F0590980895919AA1E0B0E00E940F058C
:1001A80091980895FF920E94BB040E94850203C0A3
:1001B800FF920E94BB04DE0112960E94A6021981DA
:1001C8000881EF96EF962496FF900895AA930E94CF
:1001D800A0050AE010E021E030E0EC81D901F0E070
:1001E800AE17BF074CF4F801AAE0B0E00E944E0534
:1001F8008F012F5F3F4FF1CF0E948504DF01F80187
:100208000E946B050E94A7050C9423031A930E9471
:100218008504A3E0B0E00E9479051E2F103011F488
:10022800EBE20BC0113011F4EDE207C0123011F40B
:10023800EAE203C0133009F4EFE2199108952A970E
:100248000E94A00510E000E020E030E021974EDF9A
:10025800E883552039F4E0E0F0E021960E94A705F4
:100268000C948304A881AE30E1F400E0011798F4FF
:10027800F901AAE0B0E00E944E050F01E02FF0E07E
:10028800DE011596AE0FBF1FEC91F0E0E00DF11DF9
:100298009F010F5FEBCFF90121960E94A7050C94EF
:1002A8008304A881AA3010F02196D0CFE8E6F0E0C8
:1002B800FA93EA93EA81FF27662777270E94990530
:1002C80084E076DF2696E12F1F5FF0E0DE011596C9
:1002D800EA0FFB1FA881A0832196B8CFAA93A88113
:1002E800AF3221F4A981BA81109709F004C0E0E087
:1002F800F0E00C942303A881AB3231F40E94D704B8
:10030800EA0FFB1F0C942303A881AD3241F4A981A5
:10031800BA81EB81FC81EA1BFB0B0C942303A881B7
:10032800AA3231F40E94D7040E944E050C9423038C
:10033800A881AF3231F40E94D7040E9466050C945C
:1003480023030C94230322970E949E05A2E03EDF1C
:100358008F01A1E03BDF9F0159DF5E2F1A930A93BB
:100368003A932A93A52FBADFEE83FF83EBE6F0E0FA
:10037800FA93EA93F8010E9421050E949905E52F56
:10038800FF27662777270E949905F9010E94210512
:100398000E9499058CE006DF2E96EE81FF810E946F
:1003A800A505289608950E94A005552061F0CBDF89
:1003B8008F0145DF9F01552031F00217130711F413
:1003C800EADE01C0E1DE0E94A705249608950A929C
:1003D8001A92FA926A937A938A939A93AA93BA93FF
:1003E800EA93FA93EFB7EA9355248BD0E991EFBFDC
:1003F800F991E991B991A991999189917991699125
:10040800F990199009901895EA93E1E05E2E09C0D9
:10041800EA93E3E5E2BF05C0EA93ECEBEDBDE0E863
:10042800ECBDE9911895E0E0EABBEBBBEFEFE7BB69
:10043800E0E0E8BBE1E0E4BBE0E0E5BBE3EFE1BB23
:10044800E0EFE2BBE3E0E3BFE3E5E2BFE0E0ECBFFF
:10045800EFBDE3E0EEBDECEBEDBDE0E8ECBDE0E0C8
:10046800E7BDE6BDEBBDEABDE9BDE8BDE2BDE5BD62
:10047800E4BDE3BDE5E0E9BFEBB7E06CEBBFEFE05F
:10048800E5BFE0E0E4BFE0ECEABFE0E0EAB9E0E8BD
:10049800E8B9E0E0E0BFE6B9EDB9E6BFA0E163D0B6
:1004A800789481DFFECFFFCFAA93E5B3EF70AE2F2C
:1004B800E881E07FEA2BE5BB82E18A95F1F7AB9A08
:1004C80082E18A95F1F7AB9882E18A95F1F777C0D6
:1004D800AA93A881E9DFE881E295E883A881E4DFAF
:1004E80088EB8A95F1F76BC0AA93E881F0E0E05AAF
:1004F800FD4FE081A981AE0FEBDF4980788022961D
:100508000895A2E00E94DC04ACE0E2DFA1E00E94D2
:10051800DC04E0E07E2E4E2E0895AA93A881AA302E
:1005280011F0461448F0E0E0EA937394A72DDCDF5D
:10053800A881AA3009F443C04394A99AA881C8DFC6
:10054800A9983DC0BA93AA931A93A981BA81ED914B
:10055800A983BA831E2FE03019F0A12FDEDFF5CF73
:10056800188123960895AA93E4B3E06FE4BBA39A95
:10057800A19AA29AAB98A998AA986880E881E058AD
:10058800E0936202E881E054E0936302A4E1B0E002
:100598000E940F050E94E2040E94E2040E94E20405
:1005A800A0E282DF84E191E00197F1F7A8E290DF11
:1005B800A4E08EDFA5E88CDFA6E08ADFA2DF219623
:1005C8000895BA93AA931A930A93AA81BB811296A3
:1005D8000E949105309759F1AA81BB8114960E9417
:1005E80091058F01309761F00230E0E01E0798F026
:1005F800F80131978F01AA81BB811496ED93FC9382
:10060800AA81BB811296ED91FD913196FE93EE93EE
:100618003197AC81A083AA81BB810E949105FF23F9
:100628002AF0ED91FD913196FE93EE9306C0AA81D2
:10063800BB81EFEFFFEFED93FC93198108812596BD
:100648000895BA93AA9326970E949E0510E0AC8558
:10065800BD85E0E0F0E0ED93FC93EA89FB893196F3
:10066800EA8BFB8B3197E4912E2FE03009F415C10A
:10067800E12FE03039F4253211F411E002C00E9474
:10068800EA040AC1E130A9F4253219F40E94EA0407
:1006980002C112E040E000E02D3211F401E0FCC09C
:1006A8002B3211F44BE2F8C0203211F440E2F4C0CE
:1006B80002C0E23039F450E013E0203311F400684E
:1006C800EBC003C0E33009F0E7C0203310F02A3351
:1006D80008F007C0AAE05A9F502DE22FE0535E0FA2
:1006E800DBC0E22FE33649F40E94F104E889F98976
:1006F800A481AA930E94F704CEC0E33741F40E9474
:10070800F1040E94FD040E94A2041E2F0AC0E037D3
:1007180061F40E94F1040E94FD040E94AE041E2FA1
:10072800086002600F7730E034C0E43611F0E93633
:1007380011F4046002C0E53731F4E4E5F0E0EE833B
:10074800FF8315E00CC0E83511F4086003C0E837F2
:1007580009F0A1C0EEE5F0E0EE83FF8314E002FFAC
:1007680014C00E94F1040E940705AB85AA233AF43D
:10077800EA85FB850E941D05EA87FB874DE240302C
:1007880011F01F5F01C00B7F04C00E94F1040E949A
:10079800070500FD11C0151778F407FF08C002FF10
:1007A80004C00B7F242F115001C020E301C020E2B8
:1007B8000E94EA045150EFCF312F01FF17C03030AB
:1007C800A1F003FF06C0EE81FF812591EE83FF8330
:1007D80005C0AE81BF812D91AE83BF830E94EA041C
:1007E800503009F051503150EACF4BC020E3EE8130
:1007F800FF810E949505E887F987EE81FF8132968F
:10080800EE83FF83E885F985AA85BB85AE17BF0708
:1008180050F02F5FA885B985EA85FB85EA1BFB0B9D
:10082800EA87FB87EFCF2A3328F003FF02C0295F4E
:1008380001C0295D04FD1AC0213320F4A885B985BB
:10084800119709F409C0531710F000FF01C013C035
:1008580020E207FF0BC020E3006102FF07C00B7F07
:100868004A930E94F704503009F051500E94EA045C
:10087800503009F051503150A885B985129708F0C9
:10088800B5CF00FF08C0503031F05150E0E2EA9394
:100898000E94F704F8CF10E0E0CEAC85BD850E9439
:1008A80091050E94A50564960895BA93AA93269780
:1008B8001A930A93EC85FD85309719F4EFEFFFEF53
:1008C8001CC0EC85FD85EC83FD83E0E0EE83EF83BF
:1008D800EA85FB85FA93EA93EA85FB85FA93EA931E
:1008E800E5EEF2E0FA93EA93DE011896AADE8F01AC
:1008F800AC81BD81E0E0EC93F801198108812E9666
:100908000895E0916402F091650260916602709129
:100918006702ADE6BEE486EC91E40E942E05EE592E
:10092800F8486F4F7F4FE0936402F093650260933D
:10093800660270936702FB01FF770895BA93AA9342
:10094800A991B991EE27FF276D91662311F0319691
:10095800FBCF0895BA93AA93AA27BB27E991F991E7
:100968000590002011F01196FBCFFD010895F82E97
:10097800EF97EF9722971A930A93DE01A258BF4F79
:100988000E9419058D01FE013296FA93EA93DE0161
:10099800AC57BF4F0E9419050E949105FA93EA933C
:1009A800D8010C945904E981FA81AB81BC8108957E
:1009B8000E946C02A3E0B0E00C940F05A0E30E9433
:1009C800580284E191E00197F1F708952A93AD85E3
:1009D800BE85EF85F88909950895E889F9893497DE
:1009E800E88BF98B0895AD85BE85EF85F889099563
:1009F8000895A889B98914960E949105EE83FF830A
:100A0800AE81BF810895A889B98914960E9491057D
:100A1800EA87FB870895109639F08DEC9AE00197E4
:100A2800F1F7A8951197C9F708950024AF0DB01DE7
:100A38000895F195E195F04008956F2F660F660BC4
:100A4800762F0895FA9FF02DEB9FF00DEA9FE02D89
:100A5800F10D08957A9F702D6B9F700DF89F700DA2
:100A6800E99F700D6A9F602D710DFB9F600D711DD0
:100A7800E89F600D711D8827FA9FF02D610D781F82
:100A8800EB9FF00D611D781FEA9FE02DF10D681FA7
:100A9800781F089534D0D6DF0EF4CBDF08950024F4
:100AA800112490E1AA0FBB1F001C111C0E1A1F0A6B
:100AB80018F40E0E1F1E01C0A1609A9599F7FD014A
:100AC800D00108951CD0EBDF0EF4B3DF0895E8944D
:100AD800B7FF04C0A095B09511966894F7FDA9DFFB
:100AE800DEDFFD010EF4A5DF0895E894F7FF02C0EC
:100AF800A0DF6894EA23FB230EF49BDF0895E894B3
:100B0800F7FF02C096DF6894B7FF06C0A095B095BE
:100B1800119600F8039400FA0895ED91FC9111974D
:100B280008950590F491E02D08957A936A93FA93C5
:100B3800EA9308955A934A933A932A931A930A93F5
:100B480008955D814C813B812A811981088108952E
:00000001FF
