:0C0000000C9463000C9430010C9435014A
:10000C000C9400000C9400000C9400000C94000064
:10001C000C9400000C9400000C943F010C94000014
:10002C000C943A010C9400000C9400000C94000009
:10003C000C9400000C9400000C9400000C94000034
:10004C000C9400000C9400001027E80364000A00D4
:10005C00010000100001100001001400000000005D
:10006C00000053636F72653A20256400596F7572F6
:10007C002046696E616C2053636F72652069732032
:10008C002564005072657373204F4E2F4320746F9C
:10009C00207374617274000080C001002D4E414EBB
:1000AC0000494E4600000800040066000200600291
:1000BC00A40001006402A6000000F894EE27ECBB3B
:1000CC00F1E0FBBFEBBFE5BF8DE0A2E0BB27ED93FA
:1000DC008A95E9F780E098E0A0E6ED930197E9F7BF
:1000EC00E2EBF0E085919591009761F0A591B591C7
:1000FC0005901590BF01F00105900D920197E1F765
:10010C00FB01F0CFEFE5EDBFE8E0EEBFC0E6D2E0DB
:10011C000C9472011A931FEFE0EFEABBEFEEEBBB0E
:10012C00C89902C017E0FCCFC99902C018E0FCCFF7
:10013C00CA9902C019E0FCCFCB9902C01AE0FCCFDF
:10014C00EFEDEBBBC89902C014E0FCCFC99902C01B
:10015C0015E0FCCFCA9902C016E0FCCFCB9902C0C7
:10016C001BE0FCCFEFEBEBBBC89902C011E0FCCF5E
:10017C00C99902C012E0FCCFCA9902C013E0FCCFAF
:10018C00CB9902C01CE0FCCFEFE7EBBBC89902C0D7
:10019C001DE0FCCFC99902C010E0FCCFCA9902C087
:1001AC001EE0FCCFCB9902C01FE0FCCFE12F50C06A
:1001BC00909AA1E0B0E00E944B0490980895919A17
:1001CC00A1E0B0E00E944B0491980895FF92F82EA4
:1001DC00EF97EF9722971A930A93DE01A258BF4F1D
:1001EC000E9455048D01FE013296FA93EA93DE01CA
:1001FC00AC57BF4F0E9455040E948304FA93EA93B4
:10020C00D8010E94BB03DDD0DE011296FBD0198110
:10021C000881EF96EF962496FF900895BA93AA93CF
:10022C0088809980EEE6F0E0FA93EA93EA81FB810C
:10023C000E940004C4C01A936DDF1E2F1D3041F4C0
:10024C00BB2031F4A0E0B0E0E9DFE1E0BE2EB7DF87
:10025C00199108950E9409041197E0DF2FC00E94A4
:10026C0009041396DBDF2AC0EA93E3E5E2BFE991C8
:10027C0018950A921A92FA926A937A938A939A939D
:10028C00AA93BA93EA93FA93EFB7EA93ECEBEDBD2A
:10029C00E0E8ECBDBB2091F0D3011196F2010E9475
:1002AC0075043F01062C072849F4E8E7F0E0FA93BF
:1002BC00EA93F4010E9400047BDFBB24E991EFBFB9
:1002CC00F991E991B991A991999189917991699152
:1002DC00F990199009901895E0E0EABBEBBBEFEFB1
:1002EC00E7BBE0E0E8BBE1E0E4BBE0E0E5BBE3EF6B
:1002FC00E1BBE0EFE2BBE3E0E3BFE3E5E2BFE0E05C
:10030C00ECBFEFBDE3E0EEBDECEBEDBDE0E8ECBD2A
:10031C00E0E0E7BDE6BDEBBDEABDE9BDE8BDE2BD91
:10032C00E5BDE4BDE3BDE5E0E9BFEBB7E06CEBBFD9
:10033C00EAE0E5BFE0E0E4BFE0ECEABFE0E0EAB908
:10034C00E0E8E8B9E0E0E0BFE6B9EDB9E6BFA0E16E
:10035C006AD07894EFE8F0E0FA93EA9380E036DF25
:10036C00229669DFFECFFFCFAA93E5B3EF70AE2FD5
:10037C00E881E07FEA2BE5BB82E18A95F1F7AB9A45
:10038C0082E18A95F1F7AB9882E18A95F1F777C013
:10039C00AA93A881E9DFE881E295E883A881E4DFEC
:1003AC0088EB8A95F1F76BC0AA93E881F0E0E05AEC
:1003BC00FD4FE081A981AE0FEBDFA980D88022969A
:1003CC000895A2E00E941804ACE0E2DFA1E00E94D4
:1003DC001804E0E0DE2EAE2E0895AA93A881AA3070
:1003EC0011F0AC1448F0E0E0EA93D394AD2DDCDFCF
:1003FC00A881AA3009F443C0A394A99AA881C8DFA4
:10040C00A9983DC0BA93AA931A93A981BA81ED9188
:10041C00A983BA831E2FE03019F0A12FDEDFF5CFB0
:10042C00188123960895AA93E4B3E06FE4BBA39AD2
:10043C00A19AA29AAB98A998AA98C880E881E0588A
:10044C00E0936202E881E054E0936302A4E1B0E03F
:10045C000E944B040E941E040E941E040E941E0453
:10046C00A0E282DF84E191E00197F1F7A8E290DF4E
:10047C00A4E08EDFA5E88CDFA6E08ADFA2DF219660
:10048C000895BA93AA931A930A93AA81BB811296E0
:10049C000E948304309759F1AA81BB8114960E9463
:1004AC0083048F01309761F00230E0E01E0798F072
:1004BC00F80131978F01AA81BB811496ED93FC93BF
:1004CC00AA81BB811296ED91FD913196FE93EE932C
:1004DC003197AC81A083AA81BB810E948304FF2346
:1004EC002AF0ED91FD913196FE93EE9306C0AA8110
:1004FC00BB81EFEFFFEFED93FC93198108812596FB
:10050C000895BA93AA9326970E94900410E0AC85A4
:10051C00BD85E0E0F0E0ED93FC93EA89FB89319630
:10052C00EA8BFB8B3197E4912E2FE03009F415C147
:10053C00E12FE03039F4253211F411E002C00E94B1
:10054C0026040AC1E130A9F4253219F40E942604CC
:10055C0002C112E040E000E02D3211F401E0FCC0D9
:10056C002B3211F44BE2F8C0203211F440E2F4C00B
:10057C0002C0E23039F450E013E0203311F400688B
:10058C00EBC003C0E33009F0E7C0203310F02A338E
:10059C0008F007C0AAE05A9F502DE22FE0535E0FDF
:1005AC00DBC0E22FE33649F40E942D04E889F98977
:1005BC00A481AA930E943304CEC0E33741F40E9475
:1005CC002D040E9439040E94E7031E2F0AC0E03755
:1005DC0061F40E942D040E9439040E94F3031E2F23
:1005EC00086002600F7730E034C0E43611F0E93671
:1005FC0011F4046002C0E53731F4E4E5F0E0EE8379
:10060C00FF8315E00CC0E83511F4086003C0E8372F
:10061C0009F0A1C0EEE5F0E0EE83FF8314E002FFE9
:10062C0014C00E942D040E944304AB85AA233AF403
:10063C00EA85FB850E945904EA87FB874DE240302E
:10064C0011F01F5F01C00B7F04C00E942D040E949B
:10065C00430400FD11C0151778F407FF08C002FF12
:10066C0004C00B7F242F115001C020E301C020E2F5
:10067C000E9426045150EFCF312F01FF17C03030AC
:10068C00A1F003FF06C0EE81FF812591EE83FF836D
:10069C0005C0AE81BF812D91AE83BF830E9426041D
:1006AC00503009F051503150EACF4BC020E3EE816D
:1006BC00FF810E948704E887F987EE81FF813296DB
:1006CC00EE83FF83E885F985AA85BB85AE17BF0746
:1006DC0050F02F5FA885B985EA85FB85EA1BFB0BDB
:1006EC00EA87FB87EFCF2A3328F003FF02C0295F8C
:1006FC0001C0295D04FD1AC0213320F4A885B985F9
:10070C00119709F409C0531710F000FF01C013C072
:10071C0020E207FF0BC020E3006102FF07C00B7F44
:10072C004A930E943304503009F051500E94260421
:10073C00503009F051503150A885B985129708F006
:10074C00B5CF00FF08C0503031F05150E0E2EA93D1
:10075C000E943304F8CF10E0E0CEAC85BD850E943A
:10076C0083040E94970464960895BA93AA932697DB
:10077C001A930A93EC85FD85309719F4EFEFFFEF90
:10078C001CC0EC85FD85EC83FD83E0E0EE83EF83FC
:10079C00EA85FB85FA93EA93EA85FB85FA93EA935B
:1007AC00E7E4F2E0FA93EA93DE011896AADE8F01F1
:1007BC00AC81BD81E0E0EC93F801198108812E96A3
:1007CC000895BA93AA93A991B991EE27FF276D9139
:1007DC00662311F03196FBCF0895BA93AA93AA27FA
:1007EC00BB27E991F9910590002011F01196FBCFF0
:1007FC00FD0108950E945D040E948B0484E00E9418
:10080C00EC00269608950A921A92FA926A937A93B9
:10081C008A939A93AA93BA93EA93FA93EFB7EA93CB
:10082C00D40108950E94CE01A3E0B0E00C944B04D7
:10083C00A0E30E94BA0184E191E00197F1F70895D9
:10084C002A93AD85BE85EF85F88909950895E889C9
:10085C00F9893497E88BF98B0895AD85BE85EF85C2
:10086C00F88909950895A889B98914960E9483047A
:10087C00EE83FF83AE81BF810895A889B989149650
:10088C000E948304EA87FB870895109639F08DEC5B
:10089C009AE00197F1F7A8951197C9F708950024EC
:1008AC00AF0DB01D0895F195E195F04008956F2FAF
:1008BC00660F660B762F08950024112490E1AA0F81
:1008CC00BB1F001C111C0E1A1F0A18F40E0E1F1E43
:1008DC0001C0A1609A9599F7FD01D0010895E894A3
:1008EC00B7FF04C0A095B09511966894F7FDDBDFB7
:1008FC00E3DFFD010EF4D7DF0895ED91FC91119724
:10090C0008950590F491E02D08957A936A93FA93E3
:10091C00EA9308955A934A933A932A931A930A9313
:10092C0008955D814C813B812A811981088108954C
:00000001FF
