:0E0000000C9438000C9425010C9400000C9414
:10000E0000000C9400000C9400000C9400000C9462
:10001E0000000C9400000C9400000C9400000C9452
:10002E002C010C9400000C9400000C9400000C9415
:10003E0000000C9400000C9400000C9400000C9432
:10004E0000000C940000000000003F065B4F666D40
:10005E007D077F6F0400040054000A006002580000
:10006E000000F894EE27ECBBF1E0FBBFEBBFE5BF61
:10007E008DE0A2E0BB27ED938A95E9F780E098E04A
:10008E00A0E6ED930197E9F7E2E6F0E08591959110
:10009E00009761F0A591B59105901590BF01F00103
:1000AE0005900D920197E1F7FB01F0CFEFE5EDBF63
:1000BE00E8E0EEBFC0E6D2E00C944A010E94DD01FA
:1000CE0010E021E030E01430C0F4E12FF0E0E6590A
:1000DE00FD4FBF01F901D2010E94B201DF01EAE03A
:1000EE00F0E00E94B701DB01EC93F901AAE0B0E069
:1000FE000E949A019F011F5FE6CF0E94E2012496A3
:10010E000895DCDF979A969A959A949A772009F437
:10011E009798E1E0E71509F49698E2E0E71509F4FF
:10012E009598E3E0E71509F49498E72DF0E0E65989
:10013E00FD4FE081F0E0E05AFD4FE081E8BBE72D96
:10014E00F0E03196A3E0B0E00E94C5017E2E089546
:10015E001A931FEFE0EFEABBEFEEEBBBC89902C0BC
:10016E0017E0FCCFC99902C018E0FCCFCA9902C0B3
:10017E0019E0FCCFCB9902C01AE0FCCFEFEDEBBB40
:10018E00C89902C014E0FCCFC99902C015E0FCCF9B
:10019E00CA9902C016E0FCCFCB9902C01BE0FCCF7F
:1001AE00EFEBEBBBC89902C011E0FCCFC99902C0BE
:1001BE0012E0FCCFCA9902C013E0FCCFCB9902C06B
:1001CE001CE0FCCFEFE7EBBBC89902C01DE0FCCFF3
:1001DE00C99902C010E0FCCFCA9902C01EE0FCCF44
:1001EE00CB9902C01FE0FCCFE12F26C0909AA1E070
:1001FE00B0E00E948401909808951A93A9DF1E2FF3
:10020E001F3FD1F01A3040F4D201E8EEF3E00E9425
:10021E00B701AAE0B0E007C0D201E4E6F0E00E9428
:10022E00B701A4E6B0E00E949A01DF01E12FF0E0F1
:10023E00EA0FFB1F2F01DADF19910895EA93EFB74A
:10024E0044245524EFBFE99118950A921A92FA9216
:10025E006A937A938A939A93AA93BA93EA93FA93A8
:10026E00EFB7EA93E3E5E2BF4CDFE991EFBFF99117
:10027E00E991B991A9919991899179916991F990A1
:10028E00199009901895EFEFEABBE0E0EBBBEFEFAA
:10029E00E7BBE8BBE0E0E4BBE5BBE3EFE1BBE0EFCF
:1002AE00E2BBE3E0E3BFE3E5E2BFE0E0ECBFEFBDBE
:1002BE00EEBDEDBDECBDE7BDE6BDEBBDEABDE9BDF6
:1002CE00E8BDE2BDE5BDE4BDE3BDE1E0E9BFEBB7EE
:1002DE00E064EBBFE2E0E5BFE0E0E4BFE0E4EABFEC
:1002EE00E0E0EAB9E0E8E8B9E0E0E0BFE6B9EDB990
:1002FE00E6BF789482DFFECFFFCF109639F08DECFB
:10030E009AE00197F1F7A8951197C9F70895F1951D
:10031E00E195F0400895FA9FF02DEB9FF00DEA9FC6
:10032E00E02DF10D089534D0F6DF0EF4F0DF0895D0
:10033E000024112490E1AA0FBB1F001C111C0E1AE1
:10034E001F0A18F40E0E1F1E01C0A1609A9599F790
:10035E00FD01D00108951CD0EBDF0EF4D8DF089517
:10036E00E894B7FF04C0A095B09511966894F7FD78
:10037E00CEDFDEDFFD010EF4CADF0895E894F7FF4D
:10038E0002C0C5DF6894EA23FB230EF4C0DF089594
:10039E00E894F7FF02C0BBDF6894B7FF06C0A095D4
:1003AE00B095119600F8039400FA08953A932A93A3
:1003BE001A930A9308953B812A8119810881089521
:00000001FF
