:100000000C943C000C947E000C9400000C940000B6
:100010000C9400000C9400000C9400000C94000060
:100020000C9400000C9400000C9400000C94000050
:100030000C9400000C9400000C9400000C94000040
:100040000C9400000C9400000C9400000C94000030
:100050000C940000000080C001002D4E414E00496C
:100060004E460000010005005400020060025600E8
:100070000100640258000000F894EE27ECBBF1E0A8
:10008000FBBFEBBFE5BF8DE0A2E0BB27ED938A95F8
:10009000E9F780E098E0A0E6ED930197E9F7E4E660
:1000A000F0E085919591009761F0A591B59105904B
:1000B0001590BF01F00105900D920197E1F7FB014A
:1000C000F0CFEFE5EDBFE8E0EEBFC0E6D2E00C9484
:1000D000A0002A97E52DF0E0FA93EA93DE0112964C
:1000E0000E9462018FD0DE01AED02A960895909AC8
:1000F000A1E0B0E00E949E01909808950A921A92A1
:10010000FA926A937A938A939A93AA93BA93EA9308
:10011000FA93EFB7EA935394EBE0E51511F4552405
:10012000E6DFD7DFE991EFBFF991E991B991A991A4
:100130009991899179916991F990199009901895FF
:10014000E0E0EABBEBBBE7BBE8BBE4BBE5BBE3E05D
:10015000E1BBE0E0E2BBE3BFE2BFECBFEFBDEEBD61
:10016000EDBDECBDE7BDE6BDEBBDEABDE9BDE8BD5B
:10017000E2BDE5BDE4BDE3BDE9BFEBB7E064EBBFC5
:10018000E2E0E5BFE0E0E4BFE0E4EABFE0E0EAB9D6
:10019000E0E8E8B9E0E0E0BFE6B9EDB9E6BFA0E12C
:1001A00063D0789496DFFFCFFFCFAA93E5B3EF70CB
:1001B000AE2FE881E07FEA2BE5BB82E18A95F1F77B
:1001C000AB9A82E18A95F1F7AB9882E18A95F1F7D3
:1001D00077C0AA93A881E9DFE881E295E883A88146
:1001E000E4DF88EB8A95F1F76BC0AA93E881F0E031
:1001F000E05AFD4FE081A981AE0FEBDF49807880A6
:1002000022960895A2E00E949001ACE0E2DFA1E016
:100210000E949001E0E07E2E4E2E0895AA93A881C0
:10022000AA3011F0461448F0E0E0EA937394A72D49
:10023000DCDFA881AA3009F443C04394A99AA881BD
:10024000C8DFA9983DC0BA93AA931A93A981BA812D
:10025000ED91A983BA831E2FE03019F0A12FDEDFC4
:10026000F5CF188123960895AA93E4B3E06FE4BB19
:10027000A39AA19AA29AAB98A998AA986880E881B3
:10028000E058E0936202E881E054E0936302A4E165
:10029000B0E00E949E010E9496010E9496010E9479
:1002A0009601A0E282DF84E191E00197F1F7A8E2F4
:1002B00090DFA4E08EDFA5E88CDFA6E08ADFA2DF76
:1002C00021960895BA93AA93A991B991E991F991C8
:1002D00030962AF4E095F09531966DE26D93E894AE
:1002E00080E197E20DD088EE93E00AD084E699276A
:1002F00007D08AE005D06E2F10D066276C93089542
:100300006627E817F90720F06395E81BF90BC9F792
:10031000662311F416F008956894605D6D93089556
:100320000E94E900A3E0B0E00C949E01A0E30E94CB
:10033000D50084E191E00197F1F70895109639F026
:100340008DEC9AE00197F1F7A8951197C9F70895F8
:00000001FF
